:020000040800F2
:1000000070AD00209D010008159B00080D7D0008C3
:10001000A9960008291B000805150108000000002A
:10002000000000000000000000000000A1CB00085C
:10003000312600080000000031AB00084DCD00085B
:10004000B7010008B7010008B7010008B7010008B0
:10005000B7010008B7010008B7010008B7010008A0
:10006000B70100083526000841260008B70100083E
:1000700029210008B7010008B7010008B7010008EE
:10008000B7010008B7010008B7010008B701000870
:100090002D1B0008B7010008B70100084D26000815
:1000A000B7010008B7010008B7010008B701000850
:1000B000B7010008B7010008B7010008B701000840
:1000C000B7010008B7010008B7010008B701000830
:1000D000B7010008C9D80008B7010008E5D8000832
:1000E000B7010008B7010008B7010008B701000810
:1000F000B7010008B7010008B7010008B701000800
:10010000B7010008B7010008B7010008B7010008EF
:10011000B7010008B701000859CE0008B701000870
:10012000B7010008B7010008B7010008B7010008CF
:10013000B7010008B7010008B7010008B7010008BF
:100140003D1B0008B7010008B7010008859B0008A7
:1001500039210008B7010008B7010008B7010008FD
:10016000B7010008B7010008B7010008B70100088F
:10017000B7010008B7010008B7010008000000003F
:10018000B7010008B7010008DFF80CD000F08CF8C8
:1001900000480047ED1F010870AD00200648804769
:1001A00006480047FEE7FEE7FEE7FEE7FEE7FEE75C
:1001B000FEE7FEE7FEE7FEE745CE000889010008FE
:1001C0002DE9F05F0546002092469B46884606468C
:1001D000814640241BE0284641464746224600F01F
:1001E00053F853465A46C01A914110D31146184647
:1001F000224600F03AF82D1A67EB01084F462246D6
:100200000120002100F031F817EB00094E41201EBB
:10021000A4F10104DFDC484631462A464346BDE8E6
:10022000F09F40EA01039B0703D009E008C9121FB1
:1002300008C0042AFAD203E011F8013B00F8013BA0
:10024000521EF9D27047D2B201E000F8012B491ECC
:10025000FBD270470022F6E710B513460A46044663
:100260001946FFF7F0FF204610BD202A04DB203A94
:1002700000FA02F1002070479140C2F1200320FAF9
:1002800003F3194390407047202A04DB203A21FAF7
:1002900002F00021704721FA02F3D040C2F120029F
:1002A00091400843194670471CB509480090094819
:1002B00001900546009C06E0E06840F0010394E8E8
:1002C000070098471034AC42F6D3FFF761FF0000F7
:1002D000CC620108EC62010870B58C1810F8015B63
:1002E00015F0070301D110F8013B2A1106D110F8CF
:1002F000012B03E010F8016B01F8016B5B1EF9D1D3
:100300002B0705D40023521E0DD401F8013BFAE758
:1003100010F8013BCB1A921C03E013F8015B01F8C3
:10032000015B521EF9D5A142D8D3002070BD000058
:1003300080B58CB000208DF82E0040F21400C2F27F
:1003400000000890006802F085FA40F24400C2F212
:10035000000007900068802105910CF0DBFC0798F5
:100360000068552106910CF0D5FC069907980068A5
:100370000CF0D0FC014608988DF82E10006802F0B1
:100380007DFAB0EE000A8DED090A02F007F8089830
:10039000006802F05FFA0599079800680CF0BAFC53
:1003A0000699079800680CF0B5FC06990798006854
:1003B0000CF0B0FC014608988DF82E10006802F091
:1003C0005DFA9DED090A01F0E9FF0898006802F066
:1003D00041FA079800687E210CF09CFC07980068A1
:1003E000B6210CF097FC0898006802F047FA9FEDE0
:1003F000630A01F0D3FF0898006802F02BFA059910
:10040000079800680CF086FC0699079800680CF0C5
:1004100081FC0699079800680CF07CFC014608985E
:100420008DF82E10006802F029FA9DED090A01F0FE
:10043000B5FF0898006802F00DFA05990798006862
:100440000CF068FC0699079800680CF063FC0699AC
:10045000079800680CF05EFC014608988DF82E1095
:10046000006802F00BFA9DED090A01F097FF9DF874
:100470002E001E2804D0FFE7FF208DF82F0078E023
:1004800000200A90FFE70A9805286EDCFFE740F29B
:100490001400C2F200000290006802F0DBF940F2A2
:1004A0004400C2F20000019000680A9901EB410289
:1004B00040F2F011C2F200010491895C0CF02AFCB8
:1004C0000499019800680A9A02EB420211444978A3
:1004D0000CF020FC0298006802F0D0F9B0EE000A9F
:1004E0008DED030A01F05AFF0298006802F0B2F99C
:1004F0000198049900680A9A02EB4202895C41F073
:1005000080010CF007FC01980068552100910CF067
:1005100001FC0099019800680CF0FCFB0146029870
:100520008DF82E10006802F0A9F99DED030A01F084
:1005300035FF04999DF82E000A9A02EB42021144FD
:10054000497888420CD0FFE70A9800EB400140F25E
:10055000F010C2F20000084480788DF82F0008E007
:10056000FFE70A9801300A908DE700208DF82F00F0
:10057000FFE79DF82F000CB080BD00BF0000A04237
:1005800080B5A4B000208DF88E00ADF880001F90DB
:1005900040F21400C2F200001B90006802F05AF909
:1005A00040F24400C2F200001A90006880211891C5
:1005B0000CF0B0FB1A980068552119910CF0AAFBB9
:1005C00019991A9800680CF0A5FB01461B988DF844
:1005D0008E10006802F052F9B0EE000A8DED1C0A90
:1005E00001F0DCFE1B98006802F034F918991A98A3
:1005F00000680CF08FFB19991A9800680CF08AFBC0
:1006000019991A9800680CF085FB01461B988DF823
:100610008E10006802F032F99DED1C0A01F0BEFE5A
:100620001B98006802F016F91A9800687E210CF0F9
:1006300071FB1A980068B6210CF06CFB1B980068DF
:1006400002F01CF99FEDE50A01F0A8FE1B98006876
:1006500002F000F918991A9800680CF05BFB1999E0
:100660001A9800680CF056FB19991A9800680CF05B
:1006700051FB01461B988DF88E10006802F0FEF8C1
:100680009DED1C0A01F08AFE1B98006802F0E2F85A
:1006900018991A9800680CF03DFB19991A9800688F
:1006A0000CF038FB19991A9800680CF033FB0146DE
:1006B0001B988DF88E10006802F0E0F89DED1C0A82
:1006C00001F06CFE9DF88E001E2804D0FFE7FF208D
:1006D0008DF88F000FE200201E90FFE71E98032880
:1006E00072DCFFE740F21400C2F2000015900068CF
:1006F00002F0B0F840F24400C2F20000149000682A
:100700001E9901EB410246F2B721C0F60101179193
:10071000895C0CF0FFFA1799149800681E9A02EB96
:100720004202114449780CF0F5FA1598006802F07D
:10073000A5F8B0EE000A8DED160A01F02FFE15980F
:10074000006802F087F81498179900681E9A02EB67
:100750004202895C41F080010CF0DCFA14980068D8
:10076000552113910CF0D6FA1399149800680CF0E7
:10077000D1FA014615988DF88E10006802F07EF8C7
:100780009DED160A01F00AFE17999DF88E001E9A3B
:1007900002EB42021144497888420CD0FFE71E98D0
:1007A00000EB400146F2B720C0F601000844807813
:1007B0008DF88F009FE19FEDD20A01F0EFFDFFE77A
:1007C0001E9801301E9089E700201D90FFE71D98BC
:1007D000012800F3BB80FFE740F21400C2F20000E2
:1007E0001090006802F036F840F24400C2F20000B7
:1007F0000F9000681D9901EB410146F2B722C0F647
:10080000010212921144097B0CF084FA129A0F989B
:1008100000681D9901EB41011144497B0CF07AFA03
:100820001098006802F02AF8B0EE000A8DED110A67
:1008300001F0B4FD1098006802F00CF80F98129ABD
:1008400000681D9901EB41011144097B41F08001D1
:100850000CF060FA0F98006855210E910CF05AFACE
:100860000E990F9800680CF055FA014610988DF813
:100870008E10006802F002F89DED110A01F08EFD65
:10088000129A9DF88E001D9901EB41011144497B9C
:1008900088420CD0FFE71D9800EB400046F2B721DC
:1008A000C0F601010844807B8DF88F0023E19FEDA5
:1008B000940A01F073FD40F21400C2F200000D90A2
:1008C000006801F0C7FF40F24400C2F200000C9043
:1008D000006892210B910CF01DFA0B990C9800689E
:1008E0000CF018FA0C9800681FA906220CF0F6F913
:1008F0000D98006801F0C2FF9DF87C009DF87D1006
:1009000040EA01201D9901EB41020DF1820121F81D
:1009100012009DF87E009DF87F2040EA02201D9A7B
:1009200002EB420201EB420250809DF880009DF8EC
:10093000812040EA02201D9A02EB420201EB4201B3
:100940008880FFE71D9801301D9040E740F21400B9
:10095000C2F200000990006801F07CFF40F2440000
:10096000C2F20000089000686D210CF0D3F90898DD
:10097000006800210CF0CEF90998006801F07EFFB4
:10098000B0EE000A8DED0A0A01F008FD0998006832
:1009900001F060FF08980068ED210CF0BBF90898A1
:1009A0000068552107910CF0B5F90799089800687F
:1009B0000CF0B0F9014609988DF88E10006801F02E
:1009C0005DFF9DED0A0A01F0E9FC9DF88E0038B14B
:1009D000FFE704208DF88F008DE000BF0000A042EB
:1009E00040F21400C2F200000690006801F032FFED
:1009F00040F24400C2F20000059000687E210CF035
:100A000089F905980068B6210CF084F90698006809
:100A100001F034FF9FED3A0A01F0C0FCBDF98200FD
:100A2000BDF98810401A40F25551884213DBFFE7A8
:100A3000BDF98400BDF98A10401A40F25551884230
:100A400009DBFFE7BDF98600BDF98C10401AB0F54F
:100A50002A7F04DAFFE780208DF88F004BE040F218
:100A60001400C2F200000390006801F0F3FE40F2AF
:100A70004400C2F2000002900068802100910CF056
:100A800049F902980068552101910CF043F9019948
:100A9000029800680CF03EF9014603988DF88E101C
:100AA000006801F0EBFEB0EE000A8DED040A01F0E3
:100AB00075FC0398006801F0CDFE0099029800686B
:100AC0000CF028F90199029800680CF023F90199BB
:100AD000029800680CF01EF9014603988DF88E10FC
:100AE000006801F0CBFE9DED040A01F057FC0020E8
:100AF0008DF88F00FFE79DF88F0024B080BD00BF08
:100B00000000A04280B58CB000F05AF90B90002094
:100B10000A9009900B98703001F074FC0B9880EDEE
:100B20001B0A40F21400C2F200000490006801F0B9
:100B300091FE40F24400C2F200000690006892214B
:100B400003910CF0E7F80399069800680CF0E2F8BE
:100B50000698006809A9059106220CF0BFF80498D0
:100B6000006801F08BFE9DF824109DF8250000021E
:100B700000B2084400EE100AB8EEC00A0B9890EDDF
:100B8000141A90ED182A20EE020A20EE010A80EDD8
:100B9000010A9DF826109DF82700000200B20844C3
:100BA00000EE100AB8EEC00A0B9890ED141A90ED02
:100BB000182A20EE020A20EE010A80ED020A9DF8B2
:100BC00028109DF82900000200B2084400EE100A27
:100BD000B8EEC00A0B9890ED141A90ED182A20EE8A
:100BE000020A20EE010A80ED030A40F22C00C2F254
:100BF00000000790006801F02DFE06980068802133
:100C00000CF088F805990698006808220CF066F840
:100C10000798006801F032FE9DF824000F2840F08C
:100C20008280FFE70B9890F85C00002843D0FFE734
:100C30009DF826109DF82700000200B2084400EE3F
:100C4000100AB8EEC00A0B9890ED0D1A90ED192A13
:100C500020EE020A30EE410A80ED050A9DF82810C8
:100C60009DF82900000200B2084400EE100AB8EE18
:100C7000C00A0B9890ED0E1A90ED192A20EE020A88
:100C800030EE410A80ED060A9DF82A109DF82B00EF
:100C9000000200B2084400EE100AB8EEC00A0B9839
:100CA00090ED0F1A90ED192A20EE020A30EE410A5B
:100CB00080ED040A36E09DF826109DF8270000021A
:100CC00000B2084400EE100AB8EEC00A0B9890ED8E
:100CD000191A20EE010A80ED050A9DF828109DF8EA
:100CE0002900000200B2084400EE100AB8EEC00A63
:100CF0000B9890ED191A20EE010A80ED060A9DF876
:100D00002A109DF82B00000200B2084400EE100AE1
:100D1000B8EEC00A0B9890ED191A20EE010A80ED8A
:100D2000040AFFE7FFE740F21400C2F2000002905D
:100D3000006801F08FFD40F24400C2F20000019013
:100D40000068A22100910BF0E5FF0099019800686E
:100D50000BF0E0FF0198006809A902220BF0BEFF2A
:100D60000298006801F08AFD9DF824009DF8251086
:100D7000C00040EA5110ADF82200BDF92200B0F5E4
:100D8000806F07DBFFE7BDF82200A0F50060ADF83B
:100D90002200FFE7BDF9220000EE100AB8EEC00AFB
:100DA000B4EE001A20EE010AB3EE071A30EE010A83
:100DB0000B9880ED160A0B99012008700CB080BDCD
:100DC00040F21820C2F200007047000080B586B0E3
:100DD000FFF7F6FF05900020C4F27F3004900390E7
:100DE000029001909DED010A9FED381AB4EE410A80
:100DF000F1EE10FA28DCFFE79DED020A9FED331AB1
:100E0000B4EE410AF1EE10FA1EDCFFE79DED030A95
:100E10009FED2E1AB4EE410AF1EE10FA14DCFFE752
:100E20009DED040AB2EE061AB4EE410AF1EE10FA94
:100E30000ADCFFE79DED040AB2EE031AB4EE410AA4
:100E4000F1EE10FA1EDAFFE7059943F6AC00C3F69F
:100E500022304863059941F2B060C3F6CE10886332
:100E60000599C863059941F23F60C4F21B10C8643C
:100E7000059890ED131A9FED160A80EE010A80ED99
:100E8000140A20E000200090FFE7009802280DDC03
:100E9000FFE7009A01A850F82200059901EB8201B2
:100EA0004863FFE7009801300090EEE70498059949
:100EB000C864059890ED131A9FED050A80EE010AAB
:100EC00080ED140AFFE706B080BD00BF8FC2753CFD
:100ED000C3F51C4180B58CB000208DF82E0040F287
:100EE0002C00C2F200000890006801F0B3FC40F250
:100EF0004400C2F2000007900068802105910BF0C9
:100F000009FF07980068552106910BF003FF014681
:100F100008988DF82E10006801F0B0FCB0EE000AC1
:100F20008DED090A01F03AFA0898006801F092FC88
:100F30000599079800680BF0EDFE06990798006880
:100F40000BF0E8FE014608988DF82E10006801F0BD
:100F500095FC9DED090A01F021FA0898006801F05E
:100F600079FC0798006814210BF0D4FE07980068FC
:100F7000B6210BF0CFFE0898006801F07FFC9FEDD2
:100F80005B0A01F00BFA0898006801F063FC059910
:100F9000079800680BF0BEFE0699079800680BF0F2
:100FA000B9FE014608988DF82E10006801F066FC25
:100FB0009DED090A01F0F2F90898006801F04AFC79
:100FC0000599079800680BF0A5FE06990798006838
:100FD0000BF0A0FE014608988DF82E10006801F075
:100FE0004DFC9DED090A01F0D9F99DF82E000F285E
:100FF00004D0FFE7FF208DF82F0072E000200A9058
:10100000FFE70A98052868DCFFE740F22C00C2F2EF
:1010100000000290006801F01DFC40F24400C2F2A2
:101020000000019000680A9901EB410240F20221A0
:10103000C2F200010491895C0BF06CFE04990198E6
:1010400000680A9A02EB4202114449780BF062FEF2
:101050000298006801F012FCB0EE000A8DED030A60
:1010600001F09CF90298006801F0F4FB01980499E2
:1010700000680A9A02EB4202895C41F080010BF0A1
:1010800049FE0198006855210BF044FE0146029884
:101090008DF82E10006801F0F1FB9DED030A01F0C0
:1010A0007DF904999DF82E000A9A02EB4202114440
:1010B000497888420CD0FFE70A9800EB400140F2E3
:1010C0000220C2F20000084480788DF82F0008E06A
:1010D000FFE70A9801300A9093E700208DF82F006F
:1010E000FFE79DF82F000CB080BD00BF0000A042BC
:1010F00080B58AB000208DF826008DF8250040F2DA
:101100002C00C2F200000790006801F0A3FB40F23F
:101110004400C2F2000006900068802103910BF0A9
:10112000F9FD06980068552104910BF0F3FD014686
:1011300007988DF82610006801F0A0FBB0EE000AB9
:101140008DED050A01F02AF90798006801F082FB8D
:101150000399069800680BF0DDFD04990698006875
:101160000BF0D8FD014607988DF82610006801F0B5
:1011700085FB9DED050A01F011F90798006801F063
:1011800069FB0698006814210BF0C4FD06980068FE
:10119000B6210BF0BFFD0798006801F06FFB9FEDD3
:1011A000530A8DED080A01F0F9F80798006801F07C
:1011B00051FB0399069800680BF0ACFD0499069862
:1011C00000680BF0A7FD014607988DF8261000680F
:1011D00001F054FB9DED050A01F0E0F80798006866
:1011E00001F038FB0399069800680BF093FD049911
:1011F000069800680BF08EFD014607988DF82610C2
:10120000006801F03BFB9DED050A01F0C7F8079867
:10121000006801F01FFB069800683C210BF07AFD86
:101220000698006801210BF075FD0798006801F031
:1012300025FB9DED080A01F0B1F8FFE740F22C0014
:10124000C2F200000290006801F004FB40F244008A
:10125000C2F2000001900068BC210BF05BFD019818
:10126000006855210BF056FD014602988DF82610B6
:10127000006801F003FBB0EE000A01F08FF89DF862
:10128000250001308DF82500FFE79DF8261000208D
:1012900089070029009008D4FFE79DF82510002059
:1012A0000A29B8BF01200090FFE70098C007002876
:1012B000C4D1FFE79DF825000A2804D1FFE74020AC
:1012C0008DF827000DE09DF826004007002804D582
:1012D000FFE740208DF8270003E000208DF827006D
:1012E000FFE79DF827000AB080BD00BF0000A042C4
:1012F00080B584B0FFF764FD039000F067F800202C
:101300008DF80B000399012081F86800039943F2DE
:101310003330C3F6EB20086603994AF25800C3F64F
:101320008B204866FFF72CF918B1FFE78020019069
:1013300003E0FEF7FDFF0190FFE701988DF80B0039
:10134000FFF7D6FE18B1FFE74020009003E0FFF75B
:10135000C1FD0090FFE700988DF80B00039890F80E
:101360006800012803D1FFE700F04EF802E0FFF724
:101370002DFDFFE79DF80B100120002918BF02206A
:10138000039908709DF80B0004B080BD80B582B051
:10139000FFF716FD01900198703001F059F845F6FD
:1013A0000800C0F6010090ED001AB4EE410AF1EE1B
:1013B00010FA04DDFFE7019902200870FFE70198A9
:1013C0000078013818BF012002B080BD80B582B01E
:1013D000FFF7F6FC019001990020486001998860B0
:1013E0000199C86001994861019988610199086172
:1013F00001998865019A012182F85C100199C866FB
:101400000199086702B080BD80B59AB0FFF7D8FC9B
:10141000199000200B900A90ADF8260001F03AF8E0
:101420008DED080AFFE701F035F89DED081A30EE62
:10143000410AB2EE041AB4EE410AF1EE10FA15DDDB
:10144000FFE7199943F6AC00C3F6223048631999B7
:1014500041F2B060C3F6CE1088631999C863199938
:1014600041F23F60C4F21B10C864A4E29FEDE30A9E
:1014700000F066FF19990020C8641999486319990A
:1014800088631999C863ADF81E00FFE7BDF81E0018
:1014900040F20C01C2F200010988884280F2DA8130
:1014A000FFE740F21400C2F200000390006801F070
:1014B000D1F940F24400C2F2000005900068922188
:1014C00002910BF027FC0299059800680BF022FCB2
:1014D000059800680AA9049106220BF0FFFB039807
:1014E000006801F0CBF99DF828109DF82900000252
:1014F00000B2084400EE100AB8EEC00A199890ED48
:10150000181A20EE010A80ED010A9DF82A109DF8B4
:101510002B00000200B2084400EE100AB8EEC00A28
:10152000199890ED181A20EE010A80ED020A9DF834
:101530002C109DF82D00000200B2084400EE100AA5
:10154000B8EEC00A199890ED181A20EE010A80ED45
:10155000030A199890ED011A90ED022A90ED030A02
:1015600022EE022A21EE011A31EE021A20EE000AC2
:1015700030EE010A14F042F88DED120A9DED121AB8
:10158000199890ED130A30EE010A80ED130A40F22B
:101590002C00C2F200000690006801F05BF905988B
:1015A000006880210BF0B6FB0499059800680822BA
:1015B0000BF094FB0698006801F060F99DF8280094
:1015C0000F2852D1FFE79DF82A109DF82B0000024A
:1015D00000B2084400EE100AB8EEC00A199890ED67
:1015E000191A20EE010A80ED050A9DF82C109DF8CD
:1015F0002D00000200B2084400EE100AB8EEC00A46
:10160000199890ED191A20EE010A80ED060A9DF84E
:101610002E109DF82F00000200B2084400EE100AC0
:10162000B8EEC00A199890ED191A20EE010A80ED63
:10163000040A199890ED051A90ED0D0A30EE010A92
:1016400080ED0D0A199890ED061A90ED0E0A30EE15
:10165000010A80ED0E0A199890ED041A90ED0F0A18
:1016600030EE010A80ED0F0AFFE7BDF81E00B8B9A1
:10167000FFE71298119012981090199840691690EF
:101680001998406913901998806917901998806982
:10169000149019980069189019980069159078E0CD
:1016A0009DED120A9DED111AB4EE410AF1EE10FA09
:1016B00003DBFFE7129811900DE09DED120A9DEDFE
:1016C000101AB4EE410AF1EE10FA03DCFFE71298AB
:1016D0001090FFE7FFE7199890ED050A9DED161AA7
:1016E000B4EE410AF1EE10FA04DBFFE71998406905
:1016F00016900FE0199890ED050A9DED131AB4EEBF
:10170000410AF1EE10FA04DCFFE7199840691390E2
:10171000FFE7FFE7199890ED060A9DED171AB4EE62
:10172000410AF1EE10FA04DBFFE71998806917907F
:101730000FE0199890ED060A9DED141AB4EE410AD7
:10174000F1EE10FA04DCFFE7199880691490FFE7C6
:10175000FFE7199890ED040A9DED181AB4EE410ABE
:10176000F1EE10FA04DBFFE71998006918900FE01A
:10177000199890ED040A9DED151AB4EE410AF1EEA8
:1017800010FA04DCFFE7199800691590FFE7FFE7FE
:10179000FFE79DED110A9DED101A30EE410A8DED27
:1017A0000F0A00208DF81D00FFE79DF81D0002289C
:1017B0001ADCFFE79DF81D1016A800EB810090EDE4
:1017C000000A13A800EB810090ED001A30EE410AE8
:1017D0000CA800EB810080ED000AFFE79DF81D00DA
:1017E00001308DF81D00E0E79DED0F0A9FED771A9F
:1017F000B4EE410AF1EE10FA20DC01E00AD7A33B77
:101800009DED0C0A9FED721AB4EE410AF1EE10FA4A
:1018100014DCFFE79DED0D0A9FED6D1AB4EE410A51
:10182000F1EE10FA0ADCFFE79DED0E0A9FED681A53
:10183000B4EE410AF1EE10FA01DDFFE70AE09FED98
:10184000650A00F07DFDFFE7BDF81E000130ADF830
:101850001E001BE640F20C00C2F20000008800EE01
:10186000100AB8EE401A199890ED130A80EE010A9A
:1018700080ED130A00208DF81C00FFE79DF81C0086
:1018800002281BDCFFE740F20C00C2F200000088D7
:1018900000EE100AB8EE401A19989DF81C1000EBE3
:1018A000810090ED0D0A80EE010A80ED0D0AFFE740
:1018B0009DF81C0001308DF81C00DFE7BDF8260004
:1018C0000130ADF82600FFE79DED0F0A01209FEDE6
:1018D0003F1AB4EE410AF1EE10FA019065DCFFE721
:1018E000199890ED130A9FED3C1A30EE010AB0EE04
:1018F000C00A0120B6EE001AB4EE410AF1EE10FA69
:10190000019052DCFFE79DED0C0A01209FED301A9B
:10191000B4EE410AF1EE10FA019046DCFFE79DEDCE
:101920000D0A01209FED2A1AB4EE410AF1EE10FAD9
:1019300001903ADCFFE79DED0E0A01209FED241A8D
:10194000B4EE410AF1EE10FA01902EDCFFE719988F
:1019500090ED0D0AB0EEC00A01209FED201AB4EE02
:10196000410AF1EE10FA01901FDCFFE7199890EDA3
:101970000E0AB0EEC00A01209FED181AB4EE410A1B
:10198000F1EE10FA019010DCFFE7199890ED0F0AC4
:10199000B0EEC00A9FED111A0020B4EE410AF1EE3C
:1019A00010FAC8BF01200190FFE70198C007002886
:1019B0007FF439ADFFE7199890ED131A9FED080AEF
:1019C00080EE010A80ED140A1AB080BD3333333F34
:1019D0009A99193E6F12033ACDCC1CC10AD7233C09
:1019E000CDCC1C4183B0029001910092009890ED03
:1019F000004A90ED010A90ED026A90ED035A26EE3E
:101A0000062AB6EE001A31EE422A25EE053A32EEEB
:101A1000432A029824EE057A20EE063A33EE477AFE
:101A2000D0ED000AD0ED011A90ED023A27EE217AAE
:101A300022EE202A32EE072A24EE064A20EE050A7C
:101A400030EE040A20EE030A30EE020A30EE000AFD
:101A5000019880ED000A009890ED004A90ED016A2F
:101A600090ED022A90ED035A24EE053A26EE020A82
:101A700030EE030A029826EE063A31EE433A25EE9E
:101A8000057A33EE477AD0ED000AD0ED011A90EDD9
:101A9000023A27EE217A20EE200A30EE070A24EEE1
:101AA000064A22EE052A32EE442A22EE032A30EEBE
:101AB000020A30EE000A019880ED010A009890EDCC
:101AC000002A90ED014A90ED023A90ED030A22EED1
:101AD000036A24EE005A35EE465A029822EE042A92
:101AE00023EE000A30EE020A90ED006A90ED017AD2
:101AF00090ED022A20EE070A25EE065A30EE050A7E
:101B000024EE044A31EE441A23EE033A31EE431A2E
:101B100021EE021A30EE010A30EE000A019880ED43
:101B2000020A03B070470000FFE7FEE780B542F20B
:101B30003030C2F2000001F093F980BD80B542F26E
:101B40005830C2F2000001F08BF980BD84B08DF8EE
:101B50000F000291ADF806209DF80F00014600919C
:101B600023281DD80099DFE801F012131415161B65
:101B70001B1B1B1B1B1B1B1B1B1B1B1B1B1B1B1BB5
:101B80001B1B1B1B1B1B1B1B1B1B1718191A08E0FD
:101B900007E006E005E004E003E002E001E000E029
:101BA000FFE7002004B070470020704780B582B086
:101BB00042F25400C2F20000009041F65001C2F21D
:101BC0000001002201920CF035FA009841F2500118
:101BD000C2F200010CF010FA019802B080BD0000C2
:101BE00080B584B00390029103980299096808F0C7
:101BF000D1FF039942F25400C2F2000001900CF0B0
:101C0000FBF901980CF09EF9002004B080BD0000A3
:101C100083B0029001918DF8032000208DF802001E
:101C20009DF9020003B0704780B586B00490ADF80E
:101C30000E1000208DF80D0042F25400C2F2000098
:101C4000D0F8BC0202900298D0F8140220B1FFE74D
:101C500001208DF8170013E00499BDF80E2042F220
:101C60005400C2F2000001900CF0E4F901980CF06D
:101C7000EBFA8DF80D009DF80D008DF81700FFE7C9
:101C80009DF8170006B080BD81B00090FFE701B05D
:101C90007047000080B58CB00B900B9842F2303149
:101CA000C2F20001884203D1FFE70020069002E063
:101CB0000E200690FFE70021079101200890019176
:101CC000029103910491059109900E200A900B98BE
:101CD00001A900F0F7FE0090009820B1FFE70098FE
:101CE000FFF7D2FFFFE70B9801F0BAFC00900098D5
:101CF00020B1FFE70098FFF7C7FFFFE70B9802212D
:101D000000F0FEFD0090009820B1FFE70098FFF77B
:101D1000BBFFFFE70CB080BD84B00390029101923D
:101D20000093029803990860019803994860039909
:101D30000020C860039988600099039A1161039993
:101D4000087504B07047000080B584B0039002911C
:101D50000192039842F23031C2F20001884208D168
:101D6000FFE70398029B019A19681B6907F09EFC24
:101D7000FFE704B080BD000080B586B005900491F7
:101D8000039205980499039A02AB00F0E3FD0190D9
:101D9000019820B1FFE70198FFF776FFFFE706B053
:101DA00080BD000080B582B08DF8070000F096F885
:101DB00000909DF807000099087002B080BD0000F7
:101DC00080B582B08DF8070000F088F800909DF88B
:101DD00007000099487002B080BD000080B586B051
:101DE00000F07CF8059005980078012848D1FFE7BD
:101DF00000200490FFE70498032840DCFFE70599E2
:101E0000049A5420019002FB0010D83001EB8201AB
:101E100091ED010A08F004FB01980599049A02FB70
:101E20000010D83040F23071C2F20001043100914C
:101E300051F8221091ED010A08F0E8FA019805998D
:101E4000049A02FB0010D83002EB420201EB0211AF
:101E5000183108F063F8009A0199049852F820208C
:101E60000292059A00FB0120D83008F071FA02981E
:101E700007F046FEFFE7049801300490BBE720E03E
:101E800005980078E0B9FFE700200390FFE703988A
:101E9000032814DCFFE7039A40F23070C2F200001E
:101EA00000EB82004068059901EB820191ED010A87
:101EB00007F026FEFFE7039801300390E7E7FFE70E
:101EC000FFE707F003FE059890ED050A40F6E830BD
:101ED000C2F200000AF0C2FE06B080BD40F27030CF
:101EE000C2F200007047000080B584B0FFF7F6FF33
:101EF000039000200290FFE70298032835DCFFE7FB
:101F00000398029901EB410200EB0210183001EB3B
:101F1000810245F60C01C0F6010101EB02110091AE
:101F200091ED000AD1ED010A91ED021AD1ED031AEB
:101F300091ED042AD1ED052A91ED063AD1ED0A3A48
:101F400091ED0B4AD1ED0F4A91ED105A002101910C
:101F500008F006FA01980399029A01EB82014860A1
:101F6000FFE7029801300290C6E70399002048611C
:101F700003990120087004B080BD000080B582B0D4
:101F80008DED010A9DED010A002000F061F89DED44
:101F9000010AB1EE400A012000F05AF89DED010A55
:101FA000B1EE400A022000F053F89DED010A032033
:101FB00000F04EF802B080BD80B584B08DED030A0C
:101FC0009DED030AB5EE400AF1EE10FA05DDFFE7DC
:101FD000B7EE000A8DED010A0FE09DED032ABFEE7A
:101FE000001A9FED1A0AB5EE402AF1EE10FAB8BFBA
:101FF000B0EE410A8DED010AFFE79DED010A8DED7E
:10200000020A9DED031A9DED020A45F65810C0F62E
:102010000100009090ED002A20EE020A30EE010A45
:10202000B1EE400A022000F013F800989DED030A7B
:102030009DED021A90ED002A21EE021A30EE410ABF
:10204000032000F005F804B080BD00BF00000000D0
:1020500080B584B003908DED020AFFF73FFF019039
:102060000398042801D3FFE706E002980199039A38
:1020700001EB82014860FFE704B080BD80B582B00B
:102080008DED010AFFF72AFF00909DED010A9FEDFB
:10209000111AB4EE410AF1EE10FA05DDFFE7002057
:1020A000C4F20C2001900FE09DED010A9FED0A1A89
:1020B000B4EE410AF1EE10FA05DAFFE70020CCF2A7
:1020C0000C200190FFE7FFE701980099486102B0FA
:1020D00080BD00BF00000C4200000CC280B582B081
:1020E0000190FFE7FFF77AFE45F64C10C0F60100BD
:1020F00090ED000ABCEEC00A10EE100A0FF0AEFF21
:10210000F0E7000080B582B001904FF4FA700FF054
:10211000A5FF08F00BFE0090FFE708F045FD322018
:102120000FF09CFFF9E7000080B542F2A040C2F238
:10213000000001F08FFB80BD80B542F24040C2F24A
:10214000000001F087FB80BD82B00190019800780B
:1021500010384AF6AB21CAF6AA21A0FB01100009EB
:102160000090009945F66810C0F60100405C0199A6
:10217000C8650098042807D3FFE70199086804227E
:1021800062F30900886506E00199086840F2FF32B1
:1021900090438865FFE70198806D02B070470000AA
:1021A00086B0059000208DF813000598806A039092
:1021B0000598806910BBFFE70398029003281BD89D
:1021C0000299DFE801F0020D0218059890F82F003F
:1021D000C00720B1FFE701208DF81300FFE70CE0F6
:1021E0000598C06AB0F1C07F04D1FFE701208DF8E7
:1021F0001300FFE701E000E0FFE745E00598806994
:10220000B0F5005F25D1FFE70398019003281ED8A1
:102210000199DFE801F00206021101208DF8130098
:1022200016E0059890F82F00C00720B1FFE70120C5
:102230008DF81300FFE70BE00598C06AB0F1C07F8E
:1022400004D1FFE701208DF81300FFE700E0FFE76E
:1022500019E003980090032804D3FFE700980328AF
:1022600004D00EE001208DF813000BE0059890F8E3
:102270002F00C00720B1FFE701208DF81300FFE712
:1022800000E0FFE7FFE7FFE79DF8130006B07047A7
:1022900084B003900291019200930398016808684A
:1022A00020F480200860009803990968486003982A
:1022B0008068402809D1FFE7019803990968886080
:1022C000029803990968C86008E0029803990968B0
:1022D0008860019803990968C860FFE704B07047F7
:1022E00080B582B000F088F8019040F2D050C2F280
:1022F0000000007808BBFFE740F2D051C2F20001B5
:102300000120087041F20400CEF200000068009045
:1023100000980199096A884205D2FFE70199C869C6
:102320000130C861FFE700980199086240F2D0517E
:10233000C2F2000100200870FFE702B080BD00007B
:1023400080B584B08DED030A00F056F8029041F29A
:102350000400CEF200000068019003980090FFE7AF
:1023600041F20400CEF2000000680199401A00EE2C
:10237000100AB8EE400A9DED001A029890ED042A6A
:10238000B8EE422A21EE021AB4EE410AF1EE10FA3A
:1023900001DAFFE7E4E704B080BD000080B584B057
:1023A0008DED030A00F028F8029041F20400CEF20D
:1023B00000000068019003980090FFE741F20400DC
:1023C000CEF2000000680199401A00EE100AB8EE43
:1023D000400A9DED001A029890ED052AB8EE422AB7
:1023E00021EE021AB4EE410AF1EE10FA01DAFFE72B
:1023F000E4E704B080BD000040F2A050C2F200004B
:102400007047000080B584B00390FFF7F5FF02909D
:1024100041F20400CEF20000006801900198039997
:102420000968401A00EE100AB8EE400A029890EDD2
:10243000041AB8EE411A80EE010A8DED000A0198E7
:1024400003990860FFF74CFF9DED000A04B080BDC2
:1024500080B584B00390FFF7CFFF029041F20400F3
:10246000CEF20000006803990968401A00EE100AD5
:10247000B8EE400A029890ED041AB8EE411A80EEC8
:10248000010A8DED010AFFF72BFF9DED010A04B053
:1024900080BD000080B582B0FFF7AEFF019000F074
:1024A00063F8019890ED001A90ED010AB8EE411A18
:1024B000B8EE400A9FED0B2A20EE020A30EE011A18
:1024C000008900EE100AB8EEC00A9FED072A20EE40
:1024D000020A30EE010A8DED000A9DED000A02B0FD
:1024E00080BD00BF6F12833ABD37863580B582B09C
:1024F0000190FFF781FF00904EF6FC51CEF20001F3
:10250000086840F08070086041F20401CEF20001DA
:102510000020086041F20002CEF20002116841F092
:1025200001011160019944F24022C0F20F025143AF
:10253000009A1161009A116944F6D353C1F2620303
:10254000A1FB033189095161009A11694DF683633A
:10255000C4F21B33A1FB0331890C91610099C8615E
:102560000099086202B080BD10B58CB0FFF744FF3F
:102570000B9041F20400CEF2000000680A90FFF7D1
:10258000AFFE0B98C1690A98002302934FF0FF3CFD
:102590001A46E1FB0C020B99CA6288620B990A6920
:1025A000886AC96AFDF70CFE029B099108900B9896
:1025B000D0F810E0816AC06ADDF820C0099AACFB4F
:1025C0000EC402FB0E42B1EB0C0190410691079044
:1025D00008980B990860069807990B9A019252691E
:1025E000FDF7EEFD0199029B486006990798DDF81A
:1025F0002CC0DCF80420DCF814C002FB0CF2891AB1
:1026000060F1000004910590049805990B9A0392DB
:102610009269FDF7D5FD039908810B9908684B680D
:102620004FF47A7200FB0230C8600CB010BD00009D
:102630007047000080B5082001F0C4FB80BD000099
:1026400080B5102001F0BEFB80BD000080B52020C9
:1026500001F0B8FB80BD000083B0029001910092B0
:10266000009890ED004A90ED012A90ED026A90EDFD
:10267000035A26EE060AB6EE001A31EE400A25EE9F
:10268000053A30EE437A029824EE053A22EE060A25
:1026900030EE030AD0ED000AD0ED011A90ED023AB7
:1026A00020EE210A27EE207A30EE070A24EE064AB1
:1026B00022EE052A32EE442A22EE032A30EE020AE6
:1026C00030EE000A019880ED000A009890ED004A73
:1026D00090ED016A90ED020A90ED035A24EE053A5E
:1026E00026EE002A32EE432A029826EE063A31EE12
:1026F000433A25EE057A33EE477AD0ED000AD0ED65
:10270000011A90ED023A27EE217A22EE202A32EECB
:10271000072A24EE064A20EE050A30EE040A20EECF
:10272000030A30EE020A30EE000A019880ED010A39
:10273000009890ED005A90ED014A90ED023A90ED2C
:10274000032A25EE036A24EE020A30EE060A0298F6
:1027500025EE045A23EE022A32EE455A90ED006A25
:1027600090ED017A90ED022A25EE075A20EE060A36
:1027700030EE050A24EE044A31EE441A23EE033A01
:1027800031EE431A21EE021A30EE010A30EE000A51
:10279000019880ED020A03B07047000081B0EFF3AA
:1027A000108072B60090FFE7FEE7000084B08DED68
:1027B000020A01900091019890ED000AB5EE400ADE
:1027C000F1EE10FA0BDDFFE7019890ED000AB7EE8D
:1027D000001AB4EE410AF1EE10FA03DBFFE70298AB
:1027E00003901AE0019890ED000A9DED022AB7EEE1
:1027F000001A31EE401A009890ED013A21EE031ACA
:1028000020EE020A30EE010A80ED000A0099086805
:102810004860009800680390FFE79DED030A04B04C
:102820007047000082B08DED010A00900198009978
:10283000086002B07047000080B582B00190019935
:102840000868898801F0B6FC019908740198007C39
:1028500002B080BD80B582B0019001F0DBFC01992F
:102860008860019908688988002201F0BBFC019802
:10287000FFF7E2FF0199087402B080BD80B582B015
:10288000019001F0C7FC0199886001990868898866
:10289000012201F0A7FC0198FFF7CEFF019908740F
:1028A00002B080BD80B584B047F61020C1F6FF703D
:1028B0000068039047F61420C1F6FF70006802908C
:1028C00047F61820C1F6FF7000680190019903983F
:1028D00008440390039888B1FFE7039840F2CC11B5
:1028E000C2F2000100910231082205F0B5FB009907
:1028F00002981231042205F0AFFBFFE704B080BD5F
:1029000084B002900191029890F820008DF80300A5
:102910009DF80300012805D0FFE79DF80300022879
:102920000AD1FFE7019A029801684869104348619B
:1029300000208DF80F0008E00299486A40F48020DA
:10294000486201208DF80F00FFE79DF80F0004B0EA
:102950007047000088B00690059104920393069892
:1029600090F820008DF807000698006880680090B5
:102970000598806808B9FFE700E0FFE79DF80700C9
:10298000012806D0FFE79DF80700022840F08D805F
:10299000FFE79DF80300400700280CD4FFE79DF8EF
:1029A00003000007002806D4FFE79DF80300C006D7
:1029B000002871D5FFE70098C0F3016002900298EB
:1029C000032809D3FFE70699486A40F400004862EB
:1029D00001208DF81F0071E00299012088400399C1
:1029E00008600598806868B9FFE705980168C068C5
:1029F00040EA415006990968029A01EB0211C1F8B8
:102A000080010EE005994A688868C96840EAC200FA
:102A1000084306990968029A01EB0211C1F8800186
:102A2000FFE70598006906990968029A01EB02110F
:102A3000C1F884010598007D01280CD1FFE70698B4
:102A40000068029900EB0111D1F8840140F4807014
:102A5000C1F88401FFE70498406806990968029A62
:102A600001EB0211C1F88C0104980068069909680D
:102A7000029A01EB0211C1F88801069800680299D8
:102A800000EB0111D1F8800140F00100C1F8800194
:102A900000208DF81F0011E00699486A40F40010EC
:102AA000486201208DF81F0008E00699486A40F44A
:102AB0008020486201208DF81F00FFE79DF81F006D
:102AC00008B0704786B004900391049800680190A4
:102AD000049890F820008DF803009DF80300012869
:102AE00006D0FFE79DF80300022840F0B080FFE722
:102AF00046F20040C4F2000001900199D1F80002B2
:102B000040F00100C1F800020199D1F8000220F460
:102B10007C50C1F800020398426A0199D1F8000282
:102B200040EA0220C1F800020398406900F01F014A
:102B3000012088400290029A0199D1F81C0290432A
:102B4000C1F81C020398C069F0B9FFE7029A019925
:102B5000D1F80C029043C1F80C02039A9088D16816
:102B6000526940EA0140019901EBC201C1F84002FB
:102B7000039A10889168526940EA0140019901EB7B
:102B8000C201C1F84402FFE70398C06901281ED1C1
:102B9000FFE7029A0199D1F80C021043C1F80C0228
:102BA000039A90881168526940EA0140019901EB4B
:102BB000C201C1F84002039A90899168526940EAC3
:102BC0000140019901EBC201C1F84402FFE70398FB
:102BD000806940B9FFE7029A0199D1F80402904355
:102BE000C1F8040207E0029A0199D1F804021043E7
:102BF000C1F80402FFE70398006940B9FFE7029AB1
:102C00000199D1F814029043C1F8140207E0029A26
:102C10000199D1F814021043C1F81402FFE7039898
:102C2000006A012808D1FFE7029A0199D1F81C0235
:102C30001043C1F81C02FFE70199D1F8000220F00F
:102C40000100C1F8000200208DF8170008E0049987
:102C5000486A40F48020486201208DF81700FFE7A1
:102C60009DF8170006B0704781B0009001B0704722
:102C700086B00490039102920193049890F820008A
:102C80008DF803009DF80300012806D0FFE79DF8AA
:102C90000300022840F0D780FFE7039880B9FFE7E0
:102CA00004980068C068800748B9FFE70499486A3B
:102CB00040F40010486201208DF81700CCE00FE0CE
:102CC000049800680069800748B9FFE70499486ADA
:102CD00040F40010486201208DF81700BCE0FFE7C7
:102CE00004980068039900EB0110D0F8B00100F0DF
:102CF0000400029988600298806858B9FFE7049838
:102D00000068039900EB0110D0F8B001400D029962
:102D100008600AE004980068039900EB0110D0F8FD
:102D2000B001C00802994860FFE704980068039961
:102D300000EB0110D0F8B00100F002000299C86069
:102D400004980068039900EB0110D0F8B40100F07A
:102D50000F000299086104980068039900EB0110C4
:102D6000D0F8B40180B2000A029988610498006822
:102D7000039900EB0110D0F8B401000C02994861EE
:102D800004980068039900EB0110D0F8B80101998C
:102D9000087004980068039900EB0110D0F8B8019E
:102DA000000A0199487004980068039900EB01102B
:102DB000D0F8B801000C0199887004980068039954
:102DC00000EB0110D0F8B801000E0199C87004980A
:102DD0000068039900EB0110D0F8BC01019908715B
:102DE00004980068039900EB0110D0F8BC01000AB8
:102DF0000199487104980068039900EB0110D0F81C
:102E0000BC01000C0199887104980068039900EBDB
:102E10000110D0F8BC01000E0199C871039838B9AF
:102E2000FFE704980168C86840F02000C86006E029
:102E300004980168086940F020000861FFE700205D
:102E40008DF8170008E00499486A40F48020486231
:102E500001208DF81700FFE79DF8170006B07047B6
:102E600080B58AB0099000200890099800684069F0
:102E70000790099800684068069009980068806883
:102E8000059009980068C068049009980068006976
:102E9000039009980068806902909DF81C00C007A3
:102EA000002800F09480FFE79DF81400C00758B395
:102EB000FFE709980168012088609DF814008007E9
:102EC000002804D5FFE7099800F014FC1BE09DF8EA
:102ED00014004007002805D5FFE7089840F400607B
:102EE00008900FE09DF814000007002805D5FFE7C3
:102EF000089840F48050089003E0099800F0F6FB31
:102F0000FFE7FFE7FFE7FFE79DF81500C00760B3A5
:102F1000FFE7099801684FF4807088609DF81500FC
:102F20008007002804D5FFE7099800F0EBFB1BE0C1
:102F30009DF815004007002805D5FFE7089840F4E4
:102F4000005008900FE09DF815000007002805D5F7
:102F5000FFE7089840F48040089003E0099800F0EB
:102F6000CDFBFFE7FFE7FFE7FFE79DF81600C0078F
:102F700060B3FFE7099801684FF4803088609DF8DE
:102F800016008007002804D5FFE7099800F0C2FB6F
:102F90001BE09DF816004007002805D5FFE70898BC
:102FA00040F4004008900FE09DF81600000700284C
:102FB00005D5FFE7089840F48030089003E00998B1
:102FC00000F0A4FBFFE7FFE7FFE7FFE7FFE79DF85F
:102FD0001C000007002810D5FFE79DF81000C00670
:102FE000002809D5FFE7089840F400700890099878
:102FF00001681020C860FFE7FFE79DF81C0040074C
:1030000000280FD5FFE79DF810000007002808D51D
:10301000FFE7099801680820C860099800F0CCFA19
:10302000FFE7FFE79DF81C00800700280BD5FFE7AE
:1030300009980068C068800720B1FFE7099800F090
:10304000BFFAFFE7FFE79DF81C004006002810D5F7
:10305000FFE79DF80C00C006002809D5FFE7089897
:1030600040F4806008900998016810200861FFE72B
:10307000FFE79DF81C00800600280FD5FFE79DF8AC
:103080000C000007002808D5FFE709980168082010
:103090000861099800F0B8FAFFE7FFE79DF81C0007
:1030A000C00600280BD5FFE7099800680069800773
:1030B00020B1FFE7099800F0ABFAFFE7FFE79DF8C2
:1030C0001E00800700280FD5FFE79DF81800C006F6
:1030D000002808D5FFE70998016810204860099882
:1030E00000F0BAFAFFE7FFE79DF81E00C00778B1CD
:1030F000FFE79DF818000007002808D5FFE70998AA
:10310000016808204860099800F008FBFFE7FFE726
:103110009DF81D000006002840F18D80FFE79DF816
:1031200018004007002840F18180FFE79DF81D004E
:10313000C00750B1FFE79DF80800C00728B1FFE7BE
:10314000089840F001000890FFE79DF81D008007F7
:1031500000280BD5FFE79DF808008007002805D55B
:10316000FFE7089840F002000890FFE79DF81D0077
:10317000400700280BD5FFE79DF80800400700280E
:1031800005D5FFE7089840F004000890FFE79DF898
:103190001D000007002848D5FFE79DF8080010F043
:1031A000700F42D0FFE7029800F0700001460191D5
:1031B000102814D0FFE70198202815D0FFE70198C8
:1031C000302816D0FFE70198402817D0FFE7019874
:1031D000502818D0FFE70198602819D01DE0089802
:1031E00040F00800089019E0089840F0100008909E
:1031F00014E0089840F0200008900FE0089840F094
:10320000400008900AE0089840F08000089005E02F
:10321000089840F48070089000E0FFE70998016882
:10322000886920F070008861FFE7FFE7099801686E
:1032300004204860FFE7089848B1FFE7089A099919
:10324000486A104348620998FFF70EFDFFE70AB08D
:1032500080BD000080B584B00290029820B9FFE7DD
:1032600001208DF80F00E0E0029890F8200020B9CE
:10327000FFE7029800F0DEF8FFE7029801680868AF
:1032800040F00100086000F0C5FF0190FFE70298E0
:1032900000684068C007A8B9FFE700F0BBFF0199CC
:1032A000401A0B280DD3FFE70299486A40F400301A
:1032B00048620299052081F8200001208DF80F0056
:1032C000B3E0E4E702980168086820F002000860B3
:1032D00000F0A0FF0190FFE70298006840688007B7
:1032E000002815D5FFE700F095FF0199401A0B283B
:1032F0000DD3FFE70299486A40F400304862029912
:10330000052081F8200001208DF80F008DE0E3E713
:103310000298007E012807D1FFE70298016808683B
:1033200040F08000086006E002980168086820F01C
:1033300080000860FFE70298407E012807D1FFE780
:1033400002980168086840F04000086006E00298B2
:103350000168086820F040000860FFE70298807E5E
:10336000012807D1FFE702980168086840F02000B3
:10337000086006E002980168086820F020000860F4
:10338000FFE70298C07E012807D1FFE70298016895
:10339000086820F01000086006E0029801680868DC
:1033A00040F010000860FFE70298007F012807D175
:1033B000FFE702980168086840F00800086006E02E
:1033C00002980168086820F008000860FFE702988A
:1033D000407F012807D1FFE702980168086840F0A4
:1033E0000400086006E002980168086820F0040004
:1033F0000860FFE7029B19685A689868D3F80CC008
:1034000040EA0C00D3F810C040EA0C005B69184396
:10341000013A1043C861029900204862029A0121D2
:1034200082F820108DF80F00FFE79DF80F0004B020
:1034300080BD000080B590B00F9000200E900D90E0
:103440000C900B900A900F98006846F20041C4F26D
:103450000001884249D1FFE740F2D450C2F2000097
:103460000168013101600068012812D1FFE7FFE720
:103470000020099043F64000C4F20200016841F0C8
:1034800000710160006800F0007009900998FFE782
:10349000FFE7FFE70020089043F63000C4F2020087
:1034A000016841F008010160006800F00800089020
:1034B0000898FFE703200A9002210B910021039155
:1034C0000C910D9009200E9040F60040C4F20200CD
:1034D0000AA900F093FC039A14200490062100F03E
:1034E00077FF049800F06AFF64E00F98006846F6E2
:1034F0000001C4F2000188425BD1FFE7FFE7002032
:10350000079043F64000C4F20200016841F0806178
:103510000160006800F0806007900798FFE740F2C4
:10352000D450C2F200000168013101600068012836
:1035300012D1FFE7FFE70020069043F64000C4F2F7
:103540000200016841F000710160006800F0007045
:1035500006900698FFE7FFE7FFE70020059043F697
:103560003000C4F20200016841F00201016000680D
:1035700000F0020005900598FFE760200A90022005
:103580000B90002001900C9003200D9009200E90CC
:1035900040F20040C4F202000AA900F02FFC019A98
:1035A00040200290062100F013FF029800F006FF71
:1035B000FFE7FFE710B080BD81B0009001B0704719
:1035C00080B582B00190019840F25432C2F20002FC
:1035D00040F28C23C2F200030021FFF749FB009068
:1035E000009820B1FFE70098FEF74EFBFFE7019837
:1035F00040F25431C2F2000140F28C22C2F20002C9
:10360000FEF7A2FB02B080BD81B0009001B0704710
:1036100080B582B00190019840F25432C2F20002AB
:1036200040F28C23C2F200030121FFF721FB00903E
:10363000009820B1FFE70098FEF726FBFFE701980E
:1036400040F25431C2F2000140F28C22C2F2000278
:10365000FEF77AFB02B080BD81B0009001B07047E8
:1036600080B584B00290029890F8200001282FD1F4
:10367000FFE70299022081F820000298016808689B
:1036800020F00100086000F0C5FD0190FFE70298FE
:1036900000684068C007A8B1FFE700F0BBFD0199D2
:1036A000401A0B280DD3FFE70299486A40F4003016
:1036B00048620299052081F8200001208DF80F0052
:1036C0000FE0E4E70299002048628DF80F0008E05F
:1036D0000299486A40F40020486201208DF80F00EA
:1036E000FFE79DF80F0004B080BD000081B000909E
:1036F00001B0704781B0009001B0704781B0009078
:1037000001B0704781B0009001B0704781B0009067
:1037100001B0704781B0009001B0704781B0009057
:1037200001B0704780B584B002900298806D01901E
:1037300000F070FD0090029890F8350002280DD03E
:10374000FFE7029980204865FFE70299002081F891
:103750003400FFE701208DF80F0055E00298016862
:10376000086820F01600086002980168486920F097
:10377000800048610298006C20B9FFE70298806CD5
:1037800038B1FFE702980168086820F00800086077
:10379000FFE702980168086820F001000860FFE771
:1037A000029800680068C007C8B1FFE700F032FD6A
:1037B0000099401A062811D3FFE702992020486596
:1037C0000299032081F83500FFE70299002081F873
:1037D0003400FFE703208DF80F0015E0E0E70298C2
:1037E000C16D3F208840019988600299012081F8CD
:1037F0003500FFE70299002081F83400FFE7FFE77A
:1038000000208DF80F00FFE79DF80F0004B080BD89
:1038100082B00090009890F83500022807D0FFE7AA
:1038200000998020486501208DF807000EE000997E
:10383000052081F8350000980168086820F0010033
:103840000860FFE700208DF80700FFE79DF80700FC
:1038500002B0704780B586B005900020039040F21A
:103860001410C2F20000006848F2B511C1F64E31E2
:10387000A0FB0110800A02900598806D01900198CC
:103880000068049004980599C96DC8400007002895
:103890001AD5FFE70598006800684007002812D590
:1038A000FFE705980168086820F0040008600598A3
:1038B000C16D08208840019988600599486D40F0E5
:1038C00001004865FFE7FFE704980599C96DC84006
:1038D000C007A0B1FFE7059800684069000600280E
:1038E0000CD5FFE70598C16D0120884001998860DB
:1038F0000599486D40F002004865FFE7FFE704982E
:103900000599C96DC8404007002814D5FFE7059800
:1039100000680068800700280CD5FFE70598C16D96
:1039200004208840019988600599486D40F00400A2
:103930004865FFE7FFE704980599C96DC840C006D0
:10394000002847D5FFE705980068006800070028B1
:103950003FD5FFE70598C16D102088400199886028
:10396000059800680068400300281AD5FFE705980D
:10397000006800680003002809D4FFE70598006C80
:1039800020B1FFE70598016C8847FFE708E005983C
:10399000806C20B1FFE70598816C8847FFE7FFE75F
:1039A00016E0059800680068C005002807D4FFE706
:1039B00005980168086820F008000860FFE705988E
:1039C000006C20B1FFE70598016C8847FFE7FFE72F
:1039D000FFE7FFE704980599C96DC84080060028F5
:1039E00040F18D80FFE7059800680068C006002858
:1039F00040F18480FFE70598C16D2020884001993F
:103A00008860059890F83500052834D1FFE70598BF
:103A10000168086820F01600086005980168486988
:103A200020F0800048610598006C20B9FFE70598F8
:103A3000806C38B1FFE705980168086820F008003D
:103A40000860FFE70598C16D3F20884001998860B4
:103A50000599012081F83500FFE70599002081F8DC
:103A60003400FFE70598006D20B1FFE70598016D70
:103A70008847FFE77BE0059800680068400300285E
:103A80001AD5FFE70598006800680003002809D4EC
:103A9000FFE70598406C20B1FFE70598416C884727
:103AA000FFE708E00598C06B20B1FFE70598C16B00
:103AB0008847FFE7FFE720E0059800680068C00539
:103AC000002811D4FFE705980168086820F010006D
:103AD00008600599012081F83500FFE7059900206D
:103AE00081F83400FFE7FFE70598C06B20B1FFE7DE
:103AF0000598C16B8847FFE7FFE7FFE7FFE70598F9
:103B0000406DA0B3FFE70598406DC00730B3FFE7F5
:103B10000599052081F8350005980168086820F0AE
:103B200001000860FFE70398013003900299884282
:103B300001D9FFE707E0FFE7059800680068C007C4
:103B40000028F0D1FFE70599012081F83500FFE753
:103B50000599002081F83400FFE7FFE70598C06C65
:103B600020B1FFE70598C16C8847FFE7FFE706B083
:103B700080BD000080B586B004900020039000F066
:103B800049FB0290049820B9FFE701208DF8170047
:103B9000A3E00498406A08B1FFE7FFE70499022018
:103BA00081F83500FFE70499002081F83400FFE731
:103BB00004980168086820F001000860FFE7049895
:103BC00000680068C00790B1FFE700F023FB02998E
:103BD000401A06280AD3FFE7049920204865049973
:103BE000032081F835008DF8170076E0E7E70498A8
:103BF000006800680390039848F23F01CFF210017B
:103C000008400390049900914868D1F808C0CB6837
:103C10000A6940EA0C00184310434A6910438A6954
:103C20001043CA691043096A01430398084303908B
:103C30000498406A042808D1FFE70499C86A096B10
:103C40000143039808430390FFE703980499096828
:103C500008600498006840690390039820F007000A
:103C600003900498416A0398084303900498406ABB
:103C700004281AD1FFE70498816A03980843039047
:103C80000498C06A80B1FFE70498FEF789FA50B142
:103C9000FFE70499402048650499012081F8350028
:103CA0008DF8170019E0FFE7FFE70398049909680A
:103CB00048610498FEF748FA01900498C16D3F20CE
:103CC000884001998860049900204865049A012180
:103CD00082F835108DF81700FFE79DF8170006B041
:103CE00080BD000080B586B00490039102920193DC
:103CF00000208DF80300FFE7049890F834000128B5
:103D000004D1FFE702208DF817002EE0049901206E
:103D100081F83400FFE7FFE7049890F835000128A8
:103D200014D1FFE70499022081F83500049900209E
:103D3000486504980399029A019BFEF7A9FA049832
:103D40000168086840F00100086009E0FFE7049995
:103D5000002081F83400FFE702208DF80300FFE720
:103D60009DF803008DF81700FFE79DF8170006B0D7
:103D700080BD000080B584B0039000F04BFA029043
:103D8000039801900198013048B1FFE740F2E61036
:103D9000C2F200000178019808440190FFE7FFE7B4
:103DA00000F038FA0299401A0199884201D2FFE7DF
:103DB000F6E704B080BD000081B0ADF8020001B0AC
:103DC0007047000080B582B0ADF8060043F614409D
:103DD000C4F201000068BDF8061008420CD0FFE7ED
:103DE000BDF8060043F61441C4F201010860BDF8B5
:103DF0000600FFF7E1FFFFE702B080BD8EB00D9037
:103E00000C9100200A90099008900B90FFE70B9806
:103E10000F2800F2CC81FFE70B99012088400A901F
:103E20000C9800680A990840099009980A998842F4
:103E300040F0B881FFE70C98406800F003000128CB
:103E400007D0FFE70C98406800F0030002282FD14C
:103E5000FFE70D98806808900B984100032000FA56
:103E600001F10898884308900C98C0680B994900A4
:103E700000FA01F108980843089008980D998860A5
:103E80000D98406808900B99012000FA01F10898FC
:103E9000884308900C984068C0F300100B9900FA12
:103EA00001F108980843089008980D994860FFE7C9
:103EB0000C98406800F00300032818D0FFE70D9825
:103EC000C06808900B984100032000FA01F108989F
:103ED000884308900C9880680B99490000FA01F11A
:103EE00008980843089008980D99C860FFE70C9857
:103EF000406800F00300022826D1FFE70D980B99D7
:103F00006FF0030202EA51010844006A08900B981E
:103F100000F0070081000F2000FA01F108988843A3
:103F200008900C9800690B9901F00701890000FACC
:103F300001F108980843089008980D990B9B02EA34
:103F4000530211440862FFE70D98006808900B982F
:103F50004100032000FA01F10898884308900C986A
:103F6000406800F003000B99490000FA01F108983D
:103F70000843089008980D9908600C98807980078C
:103F8000002800F00E81FFE7FFE70020079043F6CE
:103F90004400C4F20200016841F4804101600068FD
:103FA00000F4804007900798FFE70B9820F003008B
:103FB00043F60801C4F20101405808900B9800F044
:103FC000030081000F2000FA01F10898884308904F
:103FD0000D980021C4F20201884203D1FFE70020BE
:103FE00006905EE00D9840F20041C4F20201884262
:103FF00003D1FFE70120059050E00D9840F6000145
:10400000C4F20201884203D1FFE70220049042E09B
:104010000D9840F60041C4F20201884203D1FFE747
:104020000320039034E00D9841F20001C4F2020134
:10403000884203D1FFE70420029026E00D9841F268
:104040000041C4F20201884203D1FFE7052001903C
:1040500018E00D9841F60001C4F20201884203D134
:10406000FFE7062000900AE00D9941F60042C4F2F5
:1040700002020820914208BF07200090FFE7009845
:104080000190FFE701980290FFE702980390FFE795
:1040900003980490FFE704980590FFE705980690C1
:1040A000FFE70698C0B20B9901F00301890000FAFE
:1040B00001F108980843089008980B9921F0030132
:1040C00043F60802C4F20102885043F60840C4F2E5
:1040D00001000068089009990898884308900C9896
:1040E0008079C006002805D5FFE70999089808439C
:1040F0000890FFE7089843F60841C4F20101086000
:1041000043F60C40C4F20100006808900999089831
:10411000884308900C9880798006002805D5FFE731
:104120000999089808430890FFE7089843F60C415E
:10413000C4F20101086043F60440C4F201000068C3
:10414000089009990898884308900C98807980070E
:10415000002805D5FFE70999089808430890FFE76C
:10416000089843F60441C4F20101086043F6004098
:10417000C4F20100006808900999089888430890E3
:104180000C988079C00728B1FFE70999089808437F
:104190000890FFE7089843F60041C4F20101086067
:1041A000FFE7FFE7FFE70B9801300B902FE60EB01B
:1041B0007047000082B00190ADF8021001980069CC
:1041C000BDF80210084204D0FFE701208DF801007D
:1041D00003E000208DF80100FFE79DF8010002B028
:1041E0007047000082B00190ADF802108DF80120F8
:1041F0009DF8010028B1FFE7BDF802000199886130
:1042000005E0BDF80200000401998861FFE702B0F3
:104210007047000048F6A450C2F2000000687047E2
:1042200040F2E610C2F20000027848F6A451C2F251
:1042300000010868104408607047000080B543F62C
:104240000041C4F20201086840F400700860086888
:1042500040F480600860086840F4807008600320C3
:1042600000F0D0F80F2000F005F800F07BF80020F7
:1042700080BD000080B58CB00B90002004900390AE
:10428000FFE70020009043F64000C4F202000168FE
:1042900041F010010160006800F0100000900098EB
:1042A000FFE706A802A901F0AFFB09980490049863
:1042B00020B9FFE701F0D8FB059004E001F0D4FB42
:1042C00040000590FFE705984DF68361C4F21B316D
:1042D000A0FB01014FF0FF3000EB9140039042F64C
:1042E000F420C2F2000041F20001C4F200010160BA
:1042F00040F2E731C16003994160002101618160B2
:10430000816102F09BFB8DF807009DF8070028BB38
:10431000FFE742F6F420C2F2000002F033FC8DF811
:1043200007009DF80700C0B9FFE7362000F046F807
:104330000B980F280CD8FFE70B993620002200F0CD
:1043400047F80B9840F2E811C2F20001086003E060
:1043500001208DF80700FFE7FFE7FFE79DF8070062
:104360000CB080BD80B582B0FFE70020019043F61D
:104370004400C4F20200016841F480410160006819
:1043800000F4804001900198FFE7FFE700200090D3
:1043900043F64000C4F20200016841F08051016020
:1043A000006800F0805000900098FFE76FF0010077
:1043B0000F21002200F00CF802B080BD80B582B061
:1043C0008DF807009DF907000DF0FEF802B080BDE2
:1043D00080B586B08DF817000491039200200290FA
:1043E0000DF00AF902909DF91700019002980499C6
:1043F000039A05F091FB014601980DF005F906B00E
:1044000080BD000080B582B0019001980DF01EF9CA
:1044100002B080BD82B001908DF8031002B07047E9
:1044200082B00190ADF80210BDF802000199096850
:104430004862002002B0704784B003908DF80B10E2
:10444000ADF8082003980068406A00909DF80B00C2
:1044500048B9FFE7BDF80810009840EA0140039909
:104460000968886233E003980068816A009800EB6D
:104470001140009000208DF80700FFE79DF807002D
:104480009DF80B100139884213D2FFE703980068AA
:104490009DF8071000EB8100D0F80411009800EBA4
:1044A00011400090FFE79DF8070001308DF80700EC
:1044B000E4E7BDF80810009840EA01400399096854
:1044C0009DF80B2001EB8201C1F80001FFE70020FD
:1044D00004B0704780B582B001900198D0F808050B
:1044E0000AF04CFD02B080BD80B582B001908DF81D
:1044F0000310019AD2F808059DF8031001EBC103DF
:1045000002EB8302D26C0AF095FB02B080BD000082
:1045100080B582B001908DF80310019AD2F8080599
:104520009DF8031001EBC10302EB8302D2F88C2249
:104530000AF04AFC02B080BD80B582B001900198BB
:10454000D0F808050AF020FD02B080BD80B584B027
:1045500003908DF80B109DF80B00000600280CD579
:10456000FFE703989DF80B1001F00F0101EBC1016B
:1045700000EB81003C3001900CE003989DF80B109B
:1045800001F00F0101EBC10100EB810000F51F708C
:104590000190FFE70398006801990CF04BFB8DF840
:1045A0000A009DF80A0004B080BD000080B584B008
:1045B00002908DF807109DF80700000600280FD51F
:1045C000FFE702989DF8071001F00F0101EBC10110
:1045D00000EB81003C3000900099012048700FE012
:1045E00002989DF8071001F00F0101EBC10100EBEB
:1045F000810000F51F700090009900204870FFE7CF
:104600009DF8070000F00F0000990870FFE702987E
:1046100090F8BC04012804D1FFE702208DF80F00B8
:1046200014E00299012081F8BC04FFE7FFE702983B
:10463000006800990BF026FDFFE70299002081F841
:10464000BC04FFE700208DF80F00FFE79DF80F0086
:1046500004B080BD80B584B002908DF807109DF83D
:10466000070000F00F0002994968884204D9FFE76B
:1046700001208DF80F004DE09DF80700000600288E
:104680000FD5FFE702989DF8071001F00F0101EB2D
:10469000C10100EB81003C3000900099012048707E
:1046A0000FE002989DF8071001F00F0101EBC10126
:1046B00000EB810000F51F70009000990020487009
:1046C000FFE70099002088709DF8070000F00F00B8
:1046D00000990870FFE7029890F8BC04012804D103
:1046E000FFE702208DF80F0014E00299012081F805
:1046F000BC04FFE7FFE70298006800990CF042F85D
:10470000FFE70299002081F8BC04FFE700208DF844
:104710000F00FFE79DF80F0004B080BD82B001904C
:104720008DF8031001989DF8031001F00F0101EBC3
:10473000C10100EB8100D0F89C0202B0704700007C
:1047400080B586B004908DF80F10ADF80C208DF870
:104750000B3000208DF80A009DF80F00000600289D
:104760000FD5FFE704989DF80F1001F00F0101EB42
:10477000C10100EB81003C3001900199012048709B
:104780000FE004989DF80F1001F00F0101EBC1013B
:1047900000EB810000F51F70019001990020487026
:1047A000FFE79DF80F0000F00F0001990870BDF8B9
:1047B0000C000199C8609DF80B00019908710198DF
:1047C000407820B1FFE7019908780881FFE79DF85C
:1047D0000B00022804D1FFE7019900204871FFE790
:1047E000FFE7049890F8BC04012804D1FFE70220F9
:1047F0008DF8170015E00499012081F8BC04FFE74B
:10480000FFE70498006801990BF0F6FAFFE70499B6
:10481000002081F8BC04FFE79DF80A008DF817001E
:10482000FFE79DF8170006B080BD000080B586B098
:1048300005908DF813100392029305989DF81310BC
:1048400001F00F0101EBC10100EB810000F51F70C9
:104850000190039801990861029801998861019972
:1048600000200862019948709DF8130000F00F00C5
:104870000199087005980069012804D1FFE70398A1
:1048800001994861FFE79DF81300000738B9FFE779
:10489000059A10680199127C0BF028FE06E0059A33
:1048A00010680199127C0CF011F8FFE7002006B0A7
:1048B00080BD000080B584B002908DF807109DF88F
:1048C000070000F00F0002994968884204D9FFE709
:1048D00001208DF80F0058E09DF807000006002821
:1048E0000FD5FFE702989DF8071001F00F0101EBCB
:1048F000C10100EB81003C3000900099012048701C
:104900000DE002989DF8071001EBC10100EB81005A
:1049100000F51F700090009900204870FFE7009993
:10492000012088709DF8070000F00F0000990870C2
:10493000FFE7029890F8BC04012804D1FFE70220A9
:104940008DF80F0021E00299012081F8BC04FFE7F7
:10495000FFE70298006800990BF064FF9DF80700DC
:10496000000740B9FFE7029A1068117C02F2C442C6
:104970000BF0B8FEFFE7FFE70299002081F8BC04C6
:10498000FFE700208DF80F00FFE79DF80F0004B04F
:1049900080BD000080B586B005908DF8131003929D
:1049A000029305989DF8131001F00F0101EBC1016E
:1049B00000EB81003C300190039801990861029856
:1049C00001998861019900200862019901204870CD
:1049D0009DF8130000F00F00019908700598006918
:1049E000012804D1FFE7039801994861FFE79DF88A
:1049F0001300000738B9FFE7059A10680199127C87
:104A00000BF074FD06E0059A10680199127C0BF01A
:104A10005DFFFFE7002006B080BD000080B58CB0D0
:104A20000B900B9800680A900A9809900B98006800
:104A30000CF042FA002840F00D84FFE70B98006864
:104A40000CF0A6FA10B9FFE700F004BC0998D0F802
:104A50000808C0F30D200B99C1F8FC040B980068FE
:104A60000CF096FA8007002807D5FFE70B9801683D
:104A7000486900F002004861FFE70B9800680CF0FD
:104A800087FAC006002862D5FFE70B98016888699D
:104A900020F0100088610A98006A02900B98029931
:104AA00001F00F0101EBC10100EB810000F51F7067
:104AB0000890029800F4F0110220B0EB514F23D17E
:104AC000FFE7BDF8080047F6F07108421BD0FFE78A
:104AD0000A9808990969029AC2F30A120CF066FA58
:104AE000029847F6F07100EA0103089A106900EB9A
:104AF00013101061029800EA01020899086A00EB9D
:104B000012100862FFE71BE0029800F4F011062083
:104B1000B0EB514F12D1FFE70A980B9901F2C44153
:104B200008220CF043FA029847F6F07100EA0102FD
:104B30000899086A00EB1210086200E0FFE7FFE73F
:104B40000B980168886940F010008861FFE70B98B6
:104B500000680CF01DFA0003002840F1A680FFE772
:104B6000002004900B9800680CF0C0F90690FFE755
:104B70000698002800F09880FFE79DF81800C0070D
:104B8000002800F08A80FFE70B9800689DF810105D
:104B90000CF0E6F905909DF81400C00760B1FFE73E
:104BA0000998049900EB41110120C1F8080B0B98FA
:104BB000049905F035F8FFE79DF814000007002878
:104BC0000CD5FFE70998049900EB41110820C1F8C2
:104BD000080B0B98049904F0DDFFFFE79DF8140023
:104BE000C006002808D5FFE70998049900EB411199
:104BF0001020C1F8080BFFE79DF81400800700287B
:104C00002DD5FFE70A9840690006002808D5FFE780
:104C10000999D1F8040840F48060C1F80408FFE75E
:104C20000B98049901EBC10100EB810000F51F70A6
:104C300008900898C078012809D1FFE7089900205A
:104C4000C8700B989DF8101000F014FBFFE709984E
:104C5000049900EB41110220C1F8080BFFE79DF811
:104C600014008006002808D5FFE70998049900EB96
:104C700041112020C1F8080BFFE79DF815008006C0
:104C8000002809D5FFE70998049900EB41114FF47A
:104C90000050C1F8080BFFE7FFE7049801300490CB
:104CA00006984008069063E7FFE70B9800680CF051
:104CB0006FF94003002840F1C680FFE70B980068B9
:104CC0000CF002F9069000200490FFE706980028F7
:104CD00000F0B880FFE79DF81800C007002800F03A
:104CE000AA80FFE70B9800689DF810100CF010F9EF
:104CF00005909DF81400C00700283ED0FFE70498F7
:104D000000F00F01012000FA01F10391039B099AC1
:104D1000D2F834189943C2F834180999049A01EB6F
:104D20004211C1F808090B98006901281FD1FFE75B
:104D30000B98049901EBC10100EB81018A6CC86CEE
:104D40001044C864049888B9FFE70B98049901EBF4
:104D5000C10100EB8100406D40B9FFE70B99086885
:104D600001F2C44201210BF0BDFCFFE7FFE70B9805
:104D70009DF81010FFF7B8FBFFE79DF8140000073F
:104D8000002808D5FFE70998049900EB4111082095
:104D9000C1F80809FFE79DF81400C006002808D5EF
:104DA000FFE70998049900EB41111020C1F80809A8
:104DB000FFE79DF814004006002808D5FFE7099892
:104DC000049900EB41114020C1F80809FFE79DF864
:104DD00014008007002822D5FFE70A9804990CF0F8
:104DE00001F80B98049901EBC10100EB81003C3004
:104DF00008900898C078012809D1FFE70899002099
:104E0000C8700B989DF8101000F026FAFFE709987B
:104E1000049900EB41110220C1F80809FFE79DF851
:104E200014000006002805D5FFE70B98049904F04C
:104E3000DBFFFFE7FFE70498013004900698400885
:104E4000069043E7FFE70B9800680CF0A1F8C00F4D
:104E500000B3FFE70999D1F8040820F00100C1F878
:104E600004080B9890F8F404012808D1FFE70B9888
:104E7000002180F8F4140B98FFF7CCFA03E00B98AC
:104E800000F0E2FBFFE70B980168486900F0004082
:104E90004861FFE70B9800680CF07AF800050028DD
:104EA00011D5FFE70998D0F80808C00720B1FFE73F
:104EB0000B9800F057FCFFE70B980168486900F475
:104EC00000604861FFE70B9800680CF061F8C004CF
:104ED000002840F18680FFE70999D1F8040820F006
:104EE0000100C1F804080B98006810210BF07AFF4C
:104EF00000200790FFE707980B994968884231D254
:104F0000FFE70998079900EB41114FF67F30C1F890
:104F100008090999079A01EB4212D2F8001921F405
:104F20000011C2F800190999079A01EB4211C1F862
:104F3000080B0998079900EB4111D1F8000B20F4F8
:104F40000010C1F8000B0998079900EB4111D1F846
:104F5000000B40F00060C1F8000BFFE7079801303C
:104F60000790C8E70999D1F81C0840F00110C1F872
:104F70001C080B98006B78B1FFE70999D1F88408F9
:104F800040F00B00C1F884080999D1F8440840F0BA
:104F90000B00C1F844080FE00999D1F8140842F257
:104FA0002B021043C1F814080999D1F8100840F0F9
:104FB0000B00C1F81008FFE70999D1F8000820F4A8
:104FC000FE60C1F800080B9A1068117C02F2C4421E
:104FD0000BF088FB0B980168486900F48050486129
:104FE000FFE70B9800680BF0D3FF800400281FD563
:104FF000FFE70B9800680AF06FFF0B9800680BF052
:1050000035FF0B99C8600B980068019000F026FDF1
:10501000014601980B9A127B0CF0C0F80B9800F037
:10502000E9FA0B980168486900F400504861FFE70D
:105030000B9800680BF0ACFF000700280AD5FFE7CB
:105040000B9800F00BFB0B980168486900F0080012
:105050004861FFE70B9800680BF09AFF00060028F4
:1050600025D5FFE70A99886920F080008861012032
:105070000490FFE704980B994968884216D2FFE72D
:105080000B98049901EBC10100EB810090F87F02BD
:10509000012806D1FFE70B989DF81010FFF756FA8C
:1050A000FFE7FFE7049801300490E3E7FFE70B9880
:1050B00000680BF06DFFC00200283ED5FFE701201D
:1050C0000490FFE704980B99496888422ED2FFE7C5
:1050D0000998049900EB4110D0F8000902900B9850
:1050E000049901EBC10100EB810090F84000012818
:1050F00017D1FFE79DF80B000006002811D5FFE748
:105100000B98049901EBC10100EB8101012081F8AA
:105110003F000B989DF8101041F08001FFF716FA40
:10512000FFE7FFE7049801300490CBE70B98016894
:10513000486900F480104861FFE70B9800680BF0A5
:1051400027FF8002002855D5FFE701200490FFE7E4
:1051500004980B994968884245D2FFE70998049959
:1051600000EB4110D0F8000B02900B98049901EB72
:10517000C10100EB810090F8800201282ED1FFE7E9
:105180009DF80B000006002828D5FFE7029800F4E0
:1051900080300B99D1F8FC1401F0010188421DD137
:1051A000FFE70B98049901EBC10100EB810101209D
:1051B00081F87F020A99886940F0800088610A9826
:1051C00040690006002808D4FFE70999D1F80408CF
:1051D00040F40070C1F8040805E0FFE7FFE7049819
:1051E00001300490B4E70B980168486900F400109E
:1051F0004861FFE70B9800680BF0CAFE40000028EA
:105200000AD5FFE70B98FFF765F90B980168486925
:1052100000F080404861FFE70B9800680BF0B8FE93
:105220004007002815D5FFE70B98006840680290FA
:105230009DF808004007002804D5FFE70B98FFF70A
:105240007BF9FFE7029A0B980168486810434860B1
:10525000FFE7FFE70CB080BD80B582B001908DF80C
:1052600003100198D0F808059DF8031009F028FFF5
:1052700002B080BD80B582B001908DF80310019816
:10528000D0F808059DF8031009F052FF02B080BD68
:105290002DE9F04F97B01590159820B9FFE7012040
:1052A0008DF85B0049E1159800681490159890F806
:1052B000BD0440B9FFE71599002081F8BC0415989A
:1052C00000F040F9FFE71599032081F8BD04149818
:1052D000C06BC005002804D4FFE7159900200861C1
:1052E000FFE7159800680BF0F7F815981090016823
:1052F000119141688268C368D0F810C0446985691B
:10530000C669076AD0F82480D0F82890D0F82CA07D
:10531000D0F830B0D0F834E068461290C0F824E0FD
:105320001198DDF848E0CEF820B0CEF81CA0CEF8F9
:105330001890CEF81480CEF81070CEF80C60CEF82D
:105340000850CEF80440CEF800C00AF0DBFD40B1B2
:10535000FFE71599022081F8BD0401208DF85B005C
:10536000EBE01598006800210F910BF079FE0F9883
:105370008DF84F00FFE79DF84F0015994968884266
:1053800045D2FFE715989DF84F1001EBC10100EBE6
:105390008101012081F83D009DF84F00159900EB37
:1053A000C00201EB820181F83C009DF84F00159985
:1053B00000EBC00201EB8201A1F8440015989DF8B2
:1053C0004F1001EBC10100EB8101002081F840008A
:1053D00015999DF84F2002EBC20201EB820188640F
:1053E00015999DF84F2002EBC20201EB8201C864BF
:1053F00015999DF84F2002EBC20201EB820148652E
:10540000FFE79DF84F0001308DF84F00B3E7002013
:105410008DF84F00FFE79DF84F00159949688842C5
:105420003ED2FFE715989DF84F1001EBC10100EB4C
:105430008101002081F87D029DF84F10159A01EB43
:10544000C10302EB830282F87C1215999DF84F206C
:1054500002EBC20201EB820181F8800215999DF8EE
:105460004F2002EBC20201EB8201C1F888021599BC
:105470009DF84F2002EBC20201EB8201C1F88C02C1
:1054800015999DF84F2002EBC20201EB8201C1F891
:105490009402FFE79DF84F0001308DF84F00BAE706
:1054A00015980C9001680D9141688268C368D0F826
:1054B00010C044698569C669076AD0F82480D0F8AD
:1054C0002890D0F82CA0D0F830B0D0F834E068465E
:1054D0000E90C0F824E00D98DDF838E0CEF820B04A
:1054E000CEF81CA0CEF81890CEF81480CEF810702C
:1054F000CEF80C60CEF80850CEF80440CEF800C0CC
:105500000AF088FE40B1FFE71599022081F8BD043A
:1055100001208DF85B0010E0159900200B9081F8B8
:1055200038001599012081F8BD04159800680AF02B
:105530005BFE0B988DF85B00FFE79DF85B0017B0F2
:10554000BDE8F08F80B58AB00990002008900790E0
:1055500006900590049009980068B0F1A04F47D1DB
:10556000FFE7FFE70020039043F63000C4F202009B
:10557000016841F001010160006800F00100039042
:105580000398FFE74FF4C0500490022005900020DC
:105590000690032007900A2008900020C4F2020021
:1055A00004A9FEF72BFCFFE743F63401C4F2020125
:1055B000086840F080000860FFE70020029043F692
:1055C0004400C4F20200016841F4804101600068B7
:1055D00000F4804002900298FFE7FFE7432001902B
:1055E00005210022FEF7F4FE0198FEF7E7FEFFE733
:1055F0000AB080BD80B582B0019001208DF8030013
:105600000198C06820B9FFE700208DF803000CE086
:105610000198C068022804D1FFE701208DF803003B
:1056200002E0FDF7BBF8FFE7FFE70198D0F80805B7
:105630009DF8031009F07CFE0198D0F8080509F0E8
:10564000F7FD02B080BD000080B582B001900198E6
:10565000D0F8080509F03AFE02B080BD80B582B0EE
:1056600001900198D0F8080509F042FE02B080BD13
:1056700080B584B002908DF80710FFE7029890F88B
:10568000BC04012804D1FFE702208DF80F001AE0C6
:105690000299012081F8BC04FFE7FFE79DF80700AD
:1056A000029981F83800029800689DF807100BF005
:1056B00047FDFFE70299002081F8BC04FFE70020C6
:1056C0008DF80F00FFE79DF80F0004B080BD0000CB
:1056D00080B582B001900199D1F8080501F2C4416A
:1056E00009F050FE02B080BD80B584B002900298EF
:1056F00000680190FFE7029890F8BC04012804D1EB
:10570000FFE702208DF80F0027E00299012081F8C1
:10571000BC04FFE7FFE70298806A01280BD1FFE78E
:1057200002988069012806D0FFE70199886B40F450
:1057300080308863FFE7029800680BF009FB02984D
:1057400000680AF03BFDFFE70299002081F8BC04E5
:10575000FFE700208DF80F00FFE79DF80F0004B071
:1057600080BD000080B582B001900198D0F8080596
:1057700009F08AFE01980168D1F8000E40F001009E
:10578000C1F8000E0198006A48B1FFE74EF61051CB
:10579000CEF20001086840F006000860FFE702B0A2
:1057A00080BD000080B584B002900191029820B9BC
:1057B000FFE701208DF80F0021E1019843F6004139
:1057C000C4F20201096801F00701884212D9FFE71B
:1057D000019943F60040C4F202000170006800F035
:1057E00007000199884204D0FFE701208DF80F00DF
:1057F00005E1FFE702980078800700282AD5FFE737
:10580000029800784007002809D5FFE743F6080111
:10581000C4F20201086840F4E0500860FFE7029813
:1058200000780007002809D5FFE743F60801C4F215
:105830000201086840F460400860FFE743F6080191
:10584000C4F20201086820F0F000029A9268104346
:105850000860FFE702980078C00700286ED0FFE7D5
:1058600002984068012811D1FFE743F60000C4F216
:105870000200006800F400310020B0EB514F04D169
:10588000FFE701208DF80F00B9E02CE00298406896
:10589000022805D0FFE702984068032811D1FFE7EE
:1058A00043F60000C4F20200006800F0007100201E
:1058B000B0EB516F04D1FFE701208DF80F009EE09F
:1058C00010E043F60000C4F20200006800F002019C
:1058D0000020B0EB510F04D1FFE701208DF80F003D
:1058E0008DE0FFE7FFE743F60801C4F20201086814
:1058F00020F00300029A526810430860FEF78AFC09
:105900000090FFE743F60800C4F20200006800F0D0
:105910000C0002994968B0EB810F0ED0FFE7FEF74B
:1059200079FC0099401A41F28931884204D3FFE79B
:1059300003208DF80F0062E0E4E7FFE7019843F6EB
:105940000041C4F20201096801F00701884212D245
:10595000FFE7019943F60040C4F2020001700068BD
:1059600000F007000199884204D0FFE701208DF87C
:105970000F0044E0FFE702980078400700280CD5AC
:10598000FFE743F60801C4F20201086820F4E05082
:10599000029AD26810430860FFE702980078000777
:1059A00000280DD5FFE743F60801C4F2020108689C
:1059B00020F46040029A126940EAC2000860FFE7E2
:1059C00000F076F843F60801C4F202010968C9B292
:1059D0000A0945F2EC71C0F60101895CC84040F249
:1059E0001411C2F20001086040F2E810C2F2000097
:1059F0000068FEF73FFC00208DF80F00FFE79DF8E0
:105A00000F0004B080BD000082B0019000910199A8
:105A10000F20086043F60800C4F20200016801F09C
:105A20000301019A5160016801F0F001019A91604F
:105A3000016801F4E051019AD160006800F460400F
:105A4000C0080199086143F60040C4F202000068F2
:105A500000F007000099086002B0704740F214108F
:105A6000C2F200000068704780B5FFF7F7FF43F609
:105A70000801C4F202010968C1F3822245F2FC71F7
:105A8000C0F60101895CC84080BD000080B5FFF709
:105A9000E5FF43F60801C4F20201096889B24A0B26
:105AA00045F2FC71C0F60101895CC84080BD000070
:105AB00080B586B00020059004900390029043F6D4
:105AC0000800C4F20200006800F00C0001460191D9
:105AD00040B1FFE7019804280AD0FFE701980828A1
